:100000001AC04AC049C048C047C046C045C044C0E5
:1000100043C0F9C141C040C03FC03EC03DC03CC02C
:100020003BC03AC039C038C037C036C0E1C1DAC1C0
:10003000E5C132C0100311241FBECFEFCDBFDFE3F7
:10004000DEBF8091400080934000811105C098ED93
:1000500021E094BF209341008CBB1FE3A0E8BFE3E5
:10006000EFECF6E002C005900D92A238B107D9F787
:100070002FE3A2E8BFE301C01D92A23CB207E1F763
:1000800010E0CBE1D0E003C02197FE0102D3CA31DA
:10009000D107D1F7E9D103C3B3CFFC01578540891C
:1000A000252F30E0842F90E0821B930B541710F023
:1000B0000F96089501970895FC01958586859817F8
:1000C00061F0A685AE0FBF2FB11D51968C9196851C
:1000D0009F5F9F70968790E008958FEF9FEF089540
:1000E000FC0195858685981731F08685E80FF11D0E
:1000F000818990E008958FEF9FEF0895FC01958529
:100100002685892F90E04096821B91098F70992750
:100110000895DC010FB607FE04C080911101882309
:10012000B1F01896ED91FC911997848185FF0FC06D
:100130001F969C911F9750968C91981304C08581AF
:100140008F7D85830895E1E9FFE3E894E0C0089599
:100150000F931F93CF93DF93EC018C8581608C8785
:100160009F85888998130BC0E885F985848185FF70
:1001700006C08C8581FD0DC080E4848312C0062FEB
:100180001F851F5F1F708889811315C0CE01C1DFD5
:10019000FACF85818F77806490E49483E885F98530
:1001A0008583E885F985628381E090E0DF91CF91D6
:1001B0001F910F910895EF85EC0FFD2FF11D01A305
:1001C0001F878C85E885F98581FF09C085818F7738
:1001D000806690E49483E885F9858583E5CF858101
:1001E0008062FBCFCF93DF93EC018C85882359F09D
:1001F000E885F985858185FD03C0848186FD03C07E
:10020000CE0187DFF5CFDF91CF910895AF92BF92F6
:10021000CF92DF92EF92FF920F931F93CF93DF93D2
:100220006C017B018B01040F151FEB015E01AE1801
:10023000BF08C017D10759F06991D601ED91FC9123
:100240000190F081E02DC6010995892B79F7C50150
:10025000DF91CF911F910F91FF90EF90DF90CF90A2
:10026000BF90AF900895CF93DF93282F30E0D9014E
:10027000AA53B9478C918F3FB1F1F901E054F94786
:10028000E08190E2E99FF0011124FC5F61112EC032
:1002900086839081892399F4E901C654D9479881CE
:1002A000309731F1983020F57096E90FF11D9FB726
:1002B000F894808161111FC0877F80839FBF2E5576
:1002C0003947F9018081882371F0803161F48C9184
:1002D000803899F0853008F0880F9091010A809558
:1002E00089238093010ADF91CF9108958583D1CF2F
:1002F000F0E0E0E0DCCF8860E0CF81E0EECF2F934C
:100300002FB72F938F939F93AF93BF936894CF93FF
:10031000DF9320E0C085D8E09089DF01A90FB21FEC
:1003200091968C9120E42C838A839F5F9F708D81AE
:100330002785291302C08F7D8D83908BDF91CF910C
:100340000EF005CFBF91AF919F918F912F912FBF4D
:100350002F91FF91EF9118952F932FB72F933F93E4
:100360008F939F93CF93DF93C085D8E08981988145
:100370008674880F3485382B82FD0DC0C58581E0D9
:100380008C0F8F702685281791F0CE0FDF2F20E07D
:10039000D21F998B85873487DF91CF919F918F9161
:1003A0003F912F912FBF2F91FF91EF9118953064BE
:1003B000F2CF8F938FB78F939F93CF93DF93C085A7
:1003C000D8E09D8188818C8187FDFCCF9F7B9068E0
:1003D0009D83DF91CF919F918F918FBF8F91FF91DF
:1003E000EF911895EF93FF93F898E1E9FFE387CF3A
:1003F000EF93FF93F898E1E9FFE3AECFEF93FF931C
:10040000E1E9FFE3D6CF8F9382E080930B0A8FB7A9
:100410008F93EF93FF93E2E8FFE39F9368948FEF4E
:100420000FC0E89484819581885D9F4F8483958374
:10043000885E934010F08EEF03C0848395838DEF28
:100440009081981B919390819F4F919390819F4FA2
:10045000919390819F4F919326F39F91FF91EF91FC
:100460008F918FBF8F911895CF93DF93CDB7DEB764
:10047000A197CDBFDEBF97E088ED84BF9093610068
:10048000E0E0F6E080E582838AE0858380E2838392
:1004900081E08083809302028093030A2EEF2093F1
:1004A000260A2093270A9093000A92E090930A0A62
:1004B000789490E49093010490911604977F909320
:1004C000160498E09093010490911304977F909301
:1004D00013048093020480911004886080931004B8
:1004E000F09000142F2D30E050E040E019A28E0172
:1004F0000F5D1F4F9AE0892E912CA12CB12CCA01BF
:10050000B901A5019401A3D0605DD8016E938D015E
:10051000211531054105510591F7109761F0FD0155
:1005200001900020E9F73197AF014A1B5B0BBD0139
:1005300081E99FE36BDE42E050E06CEC76E881E914
:100540009FE364DE61E0F61260E060938C3F80E040
:100550008ADE60918C3F84E086DE01E0E12C84E15C
:10056000F82E1091080411708091813F811799F045
:100570002FB7F8948091863F9091873FA091883F54
:10058000B091893F2FBF80938D3F90938E3FA09372
:100590008F3FB093903F2FB7F8948091863F909112
:1005A000873FA091883FB091893F2FBF40918D3FF9
:1005B00050918E3F60918F3F7091903F841B950BBF
:1005C000A60BB70BC397A105B10538F18091803F09
:1005D000811719F11093803F11111FC060918C3F5A
:1005E000602760938C3F80E03EDE60918C3F84E02A
:1005F0003ADE80918C3F90910014891771F0D701F9
:10060000E0E0F0E10FB622812370E9F7F8948C93D3
:100610008DE984BF83E080830FBE1093813FA1CF1B
:10062000E1E9FFE31282138288EE93E0A0E0B0E0FC
:1006300084839583A683B7838CEA96E8808391832D
:1006400080E098E080879187128613860895A1E262
:100650001A2EAA1BBB1BFD010DC0AA1FBB1FEE1F3C
:10066000FF1FA217B307E407F50720F0A21BB30B87
:10067000E40BF50B661F771F881F991F1A9469F703
:1006800060957095809590959B01AC01BD01CF015F
:100690000895EE0FFF1F0590F491E02D0994F89452
:0206A000FFCF8A
:1006A20000101010100000000000A80006014D000C
:1006B200F2007E005C0070000607010203000000E9
:0D06C200000000004080020408010D0A0045
:0206CF00010127
:00000001FF
